:100000000C94DF120C9410130C9410130C94101316
:100010000C9410130C9410130C9410130C941013D4
:100020000C9410130C9410130C9410130C941013C4
:100030000C9410130C9410130C9410130C941013B4
:100040000C9410130C94698D0C9410130C941013D1
:100050000C9410130C9410130C94719F0C941D9617
:100060000C9410130C94514C0C9410130C9410130A
:100070000C9410130C9410130C9410130C94101374
:100080000C9410130C9410130C9410130C94101364
:100090000C9410130C9410130C9410130C94101354
:1000A0000C9410130C9410130C9410130C94101344
:1000B0000C9410130C9410130C9410130C94101334
:1000C0000C9410130C9410130C9410130C94101324
:1000D0000C9410130C9410130C9410130C94101314
:1000E0000C9410135ED75ED769D769D769D774D7D8
:1000F00074D774D789D77FD77FD77FD79A949D94A9
:100100008C9490949694D494A194A594AB94AF9429
:10011000B394B994BD94C194D494C794CB94CF9420
:1001200039953E9543954D955795D095619569952F
:1001300071957B9585958F959E95A895D095B2954F
:10014000BC95C695DE9FED9F0CA01BA036A03AA0E3
:100150003DA041A044A048A04BA04FA052A061A048
:100160009DA005A84CCDB2D44EB93836A9020C508A
:10017000B9918688083CA6AAAA2ABE000000803F42
:100180004E414E494E495459494E46CDCCCC3D0A7C
:10019000D7233C17B7D13877CC2B329595E6241F5F
:1001A000B14F0A000020410000C84200401C462018
:1001B000BCBE4CCA1B0E5AAEC59D74434F4D4D5527
:1001C0004E49434154494F4E0044525952554E00F6
:1001D0004552524F525300494E464F004543484FF7
:1001E0000020746F6F206C6F6E6720657874727575
:1001F00073696F6E2070726576656E7465640A004F
:1002000020636F6C6420657874727573696F6E20FB
:1002100070726576656E7465640A00536C6565700E
:100220002E2E2E005A2070726F6265206F75742E0C
:10023000206265640A005A2070726F6265206F75D3
:10024000742E2062656400473238205A20466F724F
:1002500062696464656E0A00473238205A20466F2E
:100260007262696464656E00205A3A200020593A2F
:10027000200042656420583A2000505255534120D6
:10028000627920334450204D582072656164792E84
:1002900000526573756D696E67207072696E7400C7
:1002A0005761697420666F7220757365722E2E2EE9
:1002B000004E6F206D6F76652E00456E6420666976
:1002C0006C65206C6973740A00426567696E20660C
:1002D000696C65206C6973740A00534420707269FC
:1002E0006E74696E67206279746520004E6F7420A9
:1002F0005344207072696E74696E670A0046696CB7
:10030000652064656C657465643A0044656C657469
:10031000696F6E206661696C65642C2046696C6546
:100320003A20006F70656E206661696C65642C20F0
:1003300046696C653A20002569730025696D2025A2
:100340006973002569682025696D2025697300257A
:100350006964202569682025696D20256973002559
:10036000697920256964202569682025696D202523
:100370006973005072696E742074696D653A20006B
:1003800050726F7465637465642050696E0A00482A
:10039000656174696E672E2E2E00505255534120B0
:1003A000627920334450204D582072656164792E63
:1003B00000DC01D701D001C901BB016F66660044B2
:1003C000454255473A004B494C4C45442E20004D80
:1003D0003131332053006F6B0048656174696E677B
:1003E00020646F6E652E003F0A0020573A00486572
:1003F0006174696E672E2E2E005052555341206253
:100400007920334450204D582072656164792E0064
:1004100042656420646F6E652E003F0A0020573AE3
:10042000004265642048656174696E672E00505211
:1004300055534120627920334450204D58204F6657
:10044000662E004649524D574152455F4E414D453B
:100450003A4D61726C696E20536B794E657433440A
:100460002D56322E332E3220284769746875622942
:1004700020534F555243455F434F44455F55524CBF
:100480003A68747470733A2F2F6769746875622EB6
:10049000636F6D2F4D61726C696E4669726D776125
:1004A00072652F4D61726C696E2050524F544F43EC
:1004B0004F4C5F56455253494F4E3A312E30204DE6
:1004C000414348494E455F545950453A505255535F
:1004D0004120627920334450204D582045585452D1
:1004E000554445525F434F554E543A312055554976
:1004F000443A63656465326132662D343161322D70
:10050000343734382D396231322D63353563363224
:100510006633363766660A007A5F6D696E3A200088
:10052000795F6D696E3A2000785F6D696E3A2000E0
:100530005265706F7274696E6720656E6473746F54
:1005400070207374617475730A004D313435205313
:100550003C696E6465783E206F7574206F6620720A
:10056000616E67652028302D31290A005365747447
:10057000696E672054726176656C20416363656CB7
:1005800065726174696F6E3A200053657474696EA8
:1005900067205265747261637420416363656C65A2
:1005A000726174696F6E3A200053657474696E6786
:1005B000205072696E7420416363656C657261746A
:1005C000696F6E3A200053657474696E67205072CB
:1005D000696E7420616E642054726176656C20418E
:1005E0006363656C65726174696F6E3A2000205AAE
:1005F00000205900580020204D61783A2000205AF0
:1006000000205900580020204D696E3A20004F6E9E
:1006100020004F666600536F667420656E647374C5
:100620006F70733A200020643A0020693A0020700D
:100630003A0043290A0061626C656420286D696E86
:100640002074656D702000436F6C6420657874724F
:1006500075646573206172652000426564204C6595
:1006600076656C696E6720004661696C656420740C
:100670006F20656E61626C6520426564204C657612
:10068000656C696E670A004F6666736574732061F6
:1006900070706C696564004572723A20546F6F2007
:1006A0006661722100546F6F206661722066726FFE
:1006B0006D207265666572656E636520706F696E28
:1006C000740A003A20007A5F6D61783A20007A5F00
:1006D0006D696E3A20005A204F6666736574004E4D
:1006E0006F2063617365206C696768740A004163F9
:1006F000746976652045787472756465723A200075
:10070000556E6B6E6F776E20636F6D6D616E643AC0
:100710002022002020000A436F72726563746564B2
:1007200020426564204865696768742076732E20CE
:1007300042656420546F706F6C6F67793A0A0020CD
:1007400020000A4265642048656967687420546F18
:10075000706F6772617068793A0A2020202B2D2D06
:100760002D204241434B202D2D2B0A2020207C2080
:10077000202020202020202020207C0A204C207CAB
:1007800020202020282B29202020207C20520A20D5
:1007900045207C20202020202020202020207C207C
:1007A000490A2046207C20282D29204E20282B294C
:1007B000207C20470A2054207C202020202020203C
:1007C000202020207C20480A2020207C202020205F
:1007D000282D29202020207C20540A2020207C2025
:1007E000202020202020202020207C0A2020204F94
:1007F0002D2D2046524F4E54202D2D2B0A202830CF
:100800002C30290A004D65616E206F662073616D82
:10081000706C656420706F696E74733A2000206498
:100820003A200020623A200045716E20636F6566B1
:1008300066696369656E74733A20613A20002842E4
:100840002961636B00284629726F6E740028522953
:100850006967687400284C29656674003F4E756DA1
:10086000626572206F662070726F626520706F69BA
:100870006E747320697320696D706C617573696241
:100880006C65202832206D696E696D756D292E0AA0
:100890000052756E6E696E6720696E204452592D44
:1008A00052554E206D6F64650A00473239204175FC
:1008B000746F20426564204C6576656C696E670ACA
:1008C000003F2856296572626F7365204C65766516
:1008D0006C20697320696D706C61757369626C65F9
:1008E0002028302D34292E0A004E6F204C696E6569
:1008F000204E756D62657220776974682063686543
:10090000636B73756D2C204C617374204C696E653C
:100910003A20004B494C4C45442E200053544F5034
:100920005045442E20005072696E746572207374B5
:100930006F707065642064756520746F20657272D5
:100940006F72732E20466978207468652065727214
:100950006F7220616E6420757365204D39393920BE
:10096000746F20726573746172742E202854656DE3
:100970007065726174757265206973207265736544
:10098000742E20536574206974206166746572202A
:1009900072657374617274696E67290A004E6F2004
:1009A000436865636B73756D2077697468206C6943
:1009B0006E65206E756D6265722C204C61737420BB
:1009C0004C696E653A2000636865636B73756D20D2
:1009D0006D69736D617463682C204C617374204C75
:1009E000696E653A20004C696E65204E756D6265D2
:1009F00072206973206E6F74204C617374204C698F
:100A00006E65204E756D6265722B312C204C6173C2
:100A100074204C696E653A20004D313130004D3301
:100A200031004D383420582059205A204500534475
:100A30002072656164206572726F720A00446F6E85
:100A400065207072696E74696E672066696C650AEC
:100A50000020496E76616C696420657874727564F3
:100A60006572200000006143000061430000704394
:100A7000000050C1000040C00000A0C0205A3A2031
:100A80000020593A200042656420583A2000207026
:100A90006F736974696F6E206F7574206F66207252
:100AA000616E67652E0A003F50726F6265200045D7
:100AB00072726F722077726974696E6720746F202A
:100AC000454550524F4D210A0020627974657329C3
:100AD0000A0053657474696E67732053746F72658E
:100AE00064202800454550524F4D20636865636B74
:100AF00073756D206D69736D617463680A0020629F
:100B000079746573290A002073746F7265642073A9
:100B1000657474696E677320726574726965766551
:100B20006420280048617264636F646564204465D2
:100B30006661756C742053657474696E6773204CBC
:100B40006F616465640A0020204D383531205A00F9
:100B50005A2D50726F6265204F6666736574202847
:100B60006D6D293A0A0020204D3230302044300A81
:100B70000020204D323030204400204469736162EF
:100B80006C65640A0046696C616D656E74207365FE
:100B90007474696E67733A00204400204900202075
:100BA0004D333031205000504944207365747469CE
:100BB0006E67733A0A002046002042002048002059
:100BC000204D3134352053004D6174657269616C7C
:100BD0002068656174757020706172616D657465FF
:100BE00072733A0A0020204D343230205300417590
:100BF000746F20426564204C6576656C696E673A57
:100C00000A00205A0020590020204D32303620584A
:100C100000486F6D65206F666673657420286D6D82
:100C2000290A00204500205A0020590020580020A1
:100C3000420020540020204D3230352053004164C2
:100C400076616E636564207661726961626C65735A
:100C50003A20533D4D696E20666565647261746526
:100C600020286D6D2F73292C20543D4D696E207402
:100C7000726176656C2066656564726174652028B2
:100C80006D6D2F73292C20423D6D696E696D756DF8
:100C9000207365676D656E742074696D6520286DBD
:100CA00073292C20583D6D6178696D756D205859F8
:100CB000206A65726B20286D6D2F73292C20205AB5
:100CC0003D6D6178696D756D205A206A65726B2083
:100CD000286D6D2F73292C2020453D6D6178696D3D
:100CE000756D2045206A65726B20286D6D2F732904
:100CF0000A0020540020520020204D323034205071
:100D000000416363656C65726174696F6E733A204C
:100D1000503D7072696E74696E672C20523D726529
:100D2000747261637420616E6420543D74726176E4
:100D3000656C0A00204500205A0020590020204DF3
:100D40003230312058004D6178696D756D204163F6
:100D500063656C65726174696F6E20286D6D2F73A9
:100D600032293A0A00204500205A0020590020204C
:100D70004D3230332058004D6178696D756D2066B5
:100D8000656564726174657320286D6D2F73293AEF
:100D90000A00204500205A0020590020204D3932F9
:100DA00020580053746570732070657220756E69E9
:100DB000743A0A0053442063617264206F6B0A0026
:100DC0006F70656E526F6F74206661696C65640A3E
:100DD00000766F6C756D652E696E69742066616949
:100DE0006C65640A00534420696E69742066616909
:100DF0006C0A006175746F25692E67004D323400EE
:100E00004D32332025730057726974696E67207400
:100E10006F2066696C653A20006F70656E206661B0
:100E2000696C65642C2046696C653A20006F7065BA
:100E30006E206661696C65642C2046696C653A2099
:100E40000046696C652073656C65637465640A00AF
:100E50002053697A653A200046696C65206F706599
:100E60006E65643A20006F70656E206661696C651E
:100E7000642C2046696C653A20002066696C653AEE
:100E800020004E6F7720002220706F7300222070A8
:100E90006172656E743A2200535542524F5554495F
:100EA0004E452043414C4C207461726765743A2270
:100EB000004B494C4C45442E2000747279696E6792
:100EC00020746F2063616C6C207375622D67636F93
:100ED00064652066696C6573207769746820746F37
:100EE0006F206D616E79206C6576656C732E204D78
:100EF0004158206C6576656C2069733A00457272C2
:100F00006F723A0043616E6E6F74206F70656E2071
:100F100073756264697220004D6F76652058004DCC
:100F20006F76652059004D6F7665205A00457874BC
:100F30007275646572004D6F766520302E316D6D6F
:100F4000004D6F766520316D6D004D6F76652031F7
:100F5000306D6D004D6F766520617869730045785E
:100F6000747275646572004D6F7665205A004D6F1E
:100F700076652059004D6F7665205800457874726B
:100F800075646572004D6F7665205A004D6F766509
:100F90002059004D6F76652058005072657061725F
:100FA0006500526573746F7265206661696C736168
:100FB0006665004C6F6164206D656D6F72790053DA
:100FC000746F7265206D656D6F72790046696C6132
:100FD0006D656E74004D6F74696F6E0054656D7051
:100FE00065726174757265004D61696E005072655D
:100FF000686561742041425320636F6E66005072D1
:10100000656865617420504C4120636F6E660050C6
:1010100049442D44005049442D44005049442D4931
:10102000005049442D49005049442D500050494436
:101030002D500046616E2073706565640046616ED8
:101040002073706565640042656400426564004E0B
:101050006F7A7A6C65004E6F7A7A6C6500436F6EBA
:1010600074726F6C0053746F7265206D656D6F7272
:10107000790042656400426564004E6F7A7A6C655F
:10108000004E6F7A7A6C650046616E2073706565FC
:10109000640046616E2073706565640054656D7010
:1010A00065726174757265007C3C3E5E2B3D3F2F1E
:1010B0005B5D3B2C2A225C0020746F6F206C6F6E8E
:1010C0006720657874727573696F6E2070726576CB
:1010D000656E7465640A0020636F6C6420657874C3
:1010E000727573696F6E2070726576656E74656473
:1010F0000A0000002200250028002B002E003100ED
:10110000340002010000050108010B01000020006D
:101110002300260029002C002F00320000010000CF
:10112000030106010901050505050705080808086A
:10113000020202020A0A080804040404010101016F
:10114000010101010303030303030303040707076A
:101150000C0C0C0C0C0C0C0C02020202060606060F
:10116000060606060B0B0B0B0B0B0B0B01021020DC
:1011700020080810204010204080020102010804CD
:101180000201010204081020408080402010080461
:1011900002018004020180402010080402010804BA
:1011A00002010102040810204080010204081020FE
:1011B00040804B494C4C45442E2000202D20496E48
:1011C00076616C6964206578747275646572206EEE
:1011D000756D62657220210A0000000A0B02090C7D
:1011E0000D0E0807030401000000000000000000CD
:1011F00000000000000000000000000000000000EF
:1012000000000000001211100000000000000000AB
:101210000000000000000000000000000000002DA1
:101220002D2D2D2D2D007C4D61726C696E7C002D55
:101230002D2D2D2D2D00687474703A2F2F6D617235
:101240006C696E66772E6F726700687474703A2FDF
:101250002F6D61726C696E66772E6F726700536BCB
:10126000794E657433442D56322E332E3200536B33
:10127000794E657433442D56322E332E32000020C1
:1012800020506C616E6E6572427566666572427959
:101290007465733A20002046726565204D656D6F58
:1012A00072793A2000436F6D70696C65643A204A28
:1012B000616E20323820323031380A00207C2041E3
:1012C0007574686F723A20286E6F6E652C206465A5
:1012D0006661756C7420636F6E666967290A0032F7
:1012E0003031372D30312D30352031323A30300029
:1012F000204C61737420557064617465643A2000F9
:10130000536B794E657433442D56322E332E320A88
:10131000004D61726C696E0020536F667477617264
:10132000652052657365740A0020576174636864B0
:101330006F672052657365740A002042726F776E82
:10134000206F75742052657365740A0020457874A7
:1013500065726E616C2052657365740A00506F7718
:10136000657255700A0073746172740A0065727256
:101370006F722077726974696E6720746F20666976
:101380006C650A00456E6473746F7073202563206A
:10139000256320256320256300205A3A0020593A0E
:1013A0000020583A00656E6473746F70732068692A
:1013B000743A2000446F6E6520736176696E672011
:1013C00066696C652E0A004D32390042616279739C
:1013D00074657070696E67205A0042616279737437
:1013E0006570205A004261627973746570205900FB
:1013F0004261627973746570205800466C6F7700A3
:10140000466C6F770046616E2073706565640046B8
:10141000616E2073706565640042656400426564B6
:10142000004E6F7A7A6C65004E6F7A7A6C65005365
:1014300070656564005370656564004D61696E0098
:101440005072656865617420504C412042656400AB
:101450005072656865617420504C4100507265702F
:101460006172650050726568656174204142532065
:1014700042656400507265686561742041425300A2
:1014800050726570617265004D34323800436F6F81
:101490006C646F776E0050726568656174204142BC
:1014A00053005072656865617420504C41004D389E
:1014B000340044697361626C652073746570706593
:1014C00072730053657420686F6D65206F66667374
:1014D000657473004732380A4732390047323900A1
:1014E0004C6576656C206265640047323800417552
:1014F000746F20686F6D65004D6F76652061786947
:1015000073004D61696E0024F4D43050C38E20C244
:10151000A24017828B7011127A910D816CD90AA8A2
:1015200061E108C7586607615143061E4B5D05C15E
:1015300045A7041A411104093D980371393103404C
:1015400036DB0265339102D4305402802E1D0263D3
:101550002CEE01752AC501B028A001102781018F4A
:101560002564012B244B01E0223401AC211F018DA5
:10157000200D01801FFC00841EED00971DDF00B8C8
:101580001CD200E61BC600201BBC00641AB200B2CD
:1015900019A8000A19A0006A189900D117910040F3
:1015A000178B00B516840031167E00B31579003A0A
:1015B000157300C7146F0058146A00EE1366008894
:1015C00013630025135E00C7125B006C12570015F1
:1015D000125400C111510070114F0021114B00D65F
:1015E0001049008D1047004610440002104200C010
:1015F0000F4000800F3E00420F3C00060F3B00CB27
:101600000E3800930E37005C0E3500270E3400F3C1
:101610000D3200C10D3100900D3000600D2E0032F2
:101620000D2D00050D2C00D90C2B00AE0C290085CA
:101630000C29005C0C2700350C27000E0C2600E856
:101640000B2400C40B2400A00B23007D0B23005AA5
:101650000B2100390B2100180B2000F80A1F00D9BC
:101660000A1E00BB0A1E009D0A1D00800A1D0063A1
:101670000A1C00470A1B002C0A1B00110A1A00F75B
:10168000091A00DD091900C4091900AB09190092F3
:101690000917007B091800630917004C091600366A
:1016A000091600200916000A091500F5081500E0C2
:1016B000081400CC081400B8081400A40814009002
:1016C0000813007D0812006B08130058081200462A
:1016D000081200340811002308110012081100013B
:1016E000081100F0071000E0071000D0071000C03C
:1016F000071000B0070F00A107100091070E00832C
:10170000070F0074070F0065070E0057070E00490A
:10171000070E003B070D002E070E0020070D0013DB
:10172000070D0006070D00F9060C00ED060D00E0A0
:10173000060C00D4060C00C8060C00BC060C00B059
:10174000060C00A4060B0099060C008D060B008207
:10175000060B0077060B006C060B0061060A0057AB
:10176000060B004C060A0042060A0038060A002E44
:10177000060A0024060A001A060A001006090007D5
:10178000060A00FD050900F4050900EB050900E261
:10179000050900D9050900D0050900C7050900BEE3
:1017A000050900B5050800AD050800A50509009C60
:1017B000050800940508008C050800840508007CD5
:1017C000050800740508006C050700650508005D44
:1017D000050700560508004E0507004705070040AD
:1017E00005080038050700310507002A0507002312
:1017F0000507001C050600160507000F0507000871
:1018000005060002050700FB040600F5040700EECC
:10181000040600E8040600E2040700DB040600D525
:10182000040600CF040600C9040600C3040600BD78
:10183000040600B7040600B1040500AC040600A6C7
:10184000040600A00405009B040600950405009012
:101850000406008A04050085040500800406007A59
:1018600004050075040500700405006B040500669E
:10187000040500610405005C0405005704050052DE
:101880000405004D04050048040500430405003E1E
:101890000404003A04050035040500300404002C5B
:1018A00004050027040400230405001E0404001A94
:1018B00004040016040500110404000D04040009CA
:1018C0000405000404040000040400FC030400F800
:1018D000030400F4030400F0030400EC030400E834
:1018E000030400E4030400E0030400DC030400D864
:1018F000030400D4030400D0030400CC030400C894
:10190000030300C503030024F404D9201BC40C5CAA
:101910000E9804C4095F0265077101F405F900FB24
:1019200004B30048048700C103690058035500034D
:10193000034500BE023A008402310053022A002906
:1019400002250004022000E4011C00C8011900AFB8
:101950000117009801140084011300710110006147
:1019600001100051010E0043010D0036010B002B48
:10197000010B0020010B00150109000C01090003F7
:10198000010800FB000800F3000800EB000700E47A
:10199000000600DE000600D8000600D2000600CCDB
:1019A000000500C7000500C2000500BD000400B925
:1019B000000400B5000400B1000400AD000400A95B
:1019C000000400A5000300A20003009F0004009B88
:1019D00000030098000300950002009300030090AC
:1019E0000003008D0002008B0003008800020086C7
:1019F00000020084000300810002007F0002007DDD
:101A00000002007B000200790002007700010076EE
:101A10000002007400020072000100710002006FF9
:101A20000002006D0001006C0002006A0001006904
:101A3000000200670001006600010065000100640B
:101A40000002006200010061000100600001005F0F
:101A50000002005D0001005C0001005B0001005A13
:101A60000001005900010058000100570001005614
:101A70000001005500010054000100530000005314
:101A80000001005200010051000100500001004F10
:101A90000001004E0000004E0001004D0001004C0E
:101AA0000001004B0000004B0001004A000100490A
:101AB0000001004800000048000100470001004606
:101AC0000000004600010045000000450001004400
:101AD00000010043000000430001004200000042FA
:101AE0000001004100000041000100400001003FF2
:101AF0000000003F0001003E0000003E0001003DEC
:101B00000000003D0001003C0000003C0000003CE3
:101B10000001003B0000003B0001003A0000003AD9
:101B200000010039000000390001003800000038D1
:101B300000000038000100370000003700010036C7
:101B400000000036000000360001003500000035BE
:101B500000000035000100340000003400000034B3
:101B600000010033000000330000003300010032A8
:101B7000000000320000003200010031000000319E
:101B80000000003100010030000000300000003093
:101B90000001002F0000002F0000002F0000002F88
:101BA0000001002E0000002E0000002E0001002D7C
:101BB0000000002D0000002D0000002D0001002C71
:101BC0000000002C0000002C0000002C0001002B65
:101BD0000000002B0000002B0000002B0001002A59
:101BE0000000002A0000002A0000002A000100294D
:101BF0000000002900000029000000290000002941
:101C00000001002800000028000000280000002833
:101C10000000002800010027000000270000002726
:101C20000000002700000027000100260000002619
:101C3000000000260000002600000026000100250C
:101C40000000002500000025000000250000002500
:101C500000000025000100240000002400000024F2
:101C600000000024000000240001002300000023E5
:101C700000000023000000230000002300000023D8
:101C800000000023000100220000002200000022CA
:101C900000000022000000220000002200010021BC
:101CA00000000021000000210000002100000021B0
:101CB00000000021000000210001002000000020A1
:101CC0000000002000000020000000200000002094
:101CD00000000020000000200001001F0000001F85
:101CE0000000001F0000001F0000001F0000001F78
:101CF0000000001F0001001E0000001E0000001E6A
:101D00000000001E0000004D383420582059205A91
:101D100020450000002100240027002A002D00306B
:101D200000330001010000040107010A011000AAAC
:101D30000380003A0100012201B0011001400202BB
:101D400001F002F7008003ED004004E500E004DD4F
:101D5000009005D7003006D100E006CC008007C710
:101D6000003008C300D008BE007009BB00100AB7DD
:101D700000B00AB300500BB000900CAA00D00DA523
:101D800000B00FA000F0109B0030129600D012900F
:101D900000F0158B00D0178500B0198000F01A7B79
:101DA00000701D7500F01F6F0070226900402564EF
:101DB00000A0295A00902B5500E0314500303341F6
:101DC0000060363700B0373300A0392700803C1C54
:101DD00000403D1700F03D1100903E0900D03FE566
:101DE000FFF03F38FF6265640A002C20737973743A
:101DF000656D2073746F707065642120486561742F
:101E000065725F49443A200048656174696E6720D5
:101E10006661696C65640048656174696E67206617
:101E200061696C65640048656174696E672066610C
:101E3000696C65640048656174696E6720666169F4
:101E40006C656400E0002C01EC02FA009C09BE0005
:101E5000DC0AB900D40BB4001C0DAF008C0EAA0034
:101E6000F80FA500AC11A00034139B0004159100DD
:101E700010178C002C198700A81B8200FC1D7D0008
:101E800030207800B422730010256E00AC27690062
:101E90001C2A6200A02C5C00E42E550018314C0076
:101EA0003C334800D8363E0090383400F8392E00D4
:101EB000603B2800903D1E00603E1900D03E14009B
:101EC000B43FECFFF83FC9FF4572723A204D494ECE
:101ED00054454D5020424544004572723A204D49C8
:101EE0004E54454D50004D494E54454D502074724E
:101EF00069676765726564004572723A204D4158A2
:101F000054454D5020424544004572723A204D419F
:101F10005854454D50004D415854454D5020747211
:101F20006967676572656400526573656E643A201F
:101F3000006F6B00627573793A2070617573656428
:101F400020666F7220696E7075740A00627573790D
:101F50003A2070617573656420666F7220757365D1
:101F6000720A00627573793A2070726F63657373D9
:101F7000696E670A004B494C4C45442E20004B4982
:101F80004C4C45442E2000506C6561736520726591
:101F9000736574005052494E5445522048414C5488
:101FA0004544005072696E7465722068616C746596
:101FB000642E206B696C6C28292063616C6C6564ED
:101FC000210A00656E7175657565696E672022006E
:101FD000000050C1000040C00000A0C05761726EF8
:101FE000696E673A20486F6D696E672042756D7043
:101FF0002044697669736F72203C20310A0000002A
:10200000A0400000A0400000004000006E4300001F
:10201000644300007543FFFFFF43617264207265F3
:102020006D6F766564004361726420696E736572DA
:102030007465640025753A25303275002530327597
:102040003A25303275002D2D2D005344005A005989
:102050000058000120000120004E6F2053442063EF
:10206000617264005072696E742066726F6D2053E5
:10207000440053746F70207072696E7400526573FF
:10208000756D65207072696E74005061757365209E
:102090007072696E7400436F6E74726F6C00507270
:1020A00065706172650054756E6500496E666F20DB
:1020B00073637265656E00426162797374657070F6
:1020C000696E672058004261627973746570706947
:1020D0006E67205900544845524D414C2052554E90
:1020E0004157415900546865726D616C2052756E9C
:1020F0006177617900206669727374005A00590033
:102100005800486F6D6520002066697273740A007C
:102110005A0059005800486F6D6520006563686F6C
:102120003A004573746570732F6D6D004573746567
:1021300070732F6D6D005A73746570732F6D6D0021
:102140005A73746570732F6D6D0059737465707375
:102150002F6D6D005973746570732F6D6D0058731A
:10216000746570732F6D6D005873746570732F6D87
:102170006D00412D74726176656C00412D74726141
:1021800076656C00412D7265747261637400412D37
:102190007265747261637400416D6178204500411D
:1021A0006D6178204500416D6178205A00416D6174
:1021B00078205A00416D6178205900416D61782086
:1021C0005900416D6178205800416D6178205800B8
:1021D0005654726176206D696E0056547261762095
:1021E0006D696E00566D696E00566D696E00566DB4
:1021F0006178204500566D6178204500566D617804
:10220000205A00566D6178205A00566D6178205929
:1022100000566D6178205900566D6178205800563F
:102220006D617820580056652D6A65726B005665A1
:102230002D6A65726B00567A2D6A65726B00567A4C
:102240002D6A65726B0056792D6A65726B0056793E
:102250002D6A65726B0056782D6A65726B00567830
:102260002D6A65726B00416363656C004163636551
:102270006C005A204F6666736574005A204F66667C
:1022800073657400436F6E74726F6C005374616E8B
:102290006461726420446576696174696F6E3A2086
:1022A000002052616E67653A2000204D61783A2027
:1022B00000204D696E3A20004D65616E3A2000465F
:1022C000696E697368656421002072616E67653AA2
:1022D0002000206D61783A2000206D696E3A200060
:1022E000207369676D613A2000206D65616E3A2048
:1022F000003A207A3A2000206F662000205A002001
:102300005900205800476F696E6720746F3A004388
:102310006C6F636B776973650A00436F756E7465E4
:10232000722D0020446972656374696F6E3A2000F3
:10233000202020616E676C653A20005374617274CE
:10234000696E67207261646975733A2000506F731B
:102350006974696F6E696E67207468652070726F4A
:1023600062652E2E2E0A003F4E756D626572206FDB
:1023700066206C65677320696E206D6F76656D658C
:102380006E74206E6F7420706C61757369626C6519
:102390002028302D3135292E0A00590058003F538E
:1023A000616D706C652073697A65206E6F74207042
:1023B0006C61757369626C652028342D3530292E67
:1023C0000A004D3438205A2D50726F6265205265D4
:1023D000706561746162696C6974792054657374A5
:1023E0000A003F566572626F7365204C6576656CB6
:1023F000206E6F7420706C61757369626C65202843
:10240000302D34292E0A002042403A0020403A0064
:10241000202F0020423A00202F0020543A00205A5A
:102420003A0020593A0020436F756E7420583A00E4
:1024300020453A00205A3A0020593A00583A0023E1
:10244000646566696E65202044454641554C545F7D
:102450004B64200023646566696E65202044454610
:1024600041554C545F4B69200023646566696E6575
:10247000202044454641554C545F4B702000504944
:1024800044204175746F74756E652066696E69735A
:10249000686564212050757420746865206C6173D0
:1024A00074204B702C204B6920616E64204B64209B
:1024B000636F6E7374616E74732066726F6D2062E9
:1024C000656C6F7720696E746F20436F6E66696705
:1024D00075726174696F6E2E680A0050494420411C
:1024E00075746F74756E65206661696C6564212012
:1024F00074696D656F75740A0050494420417574A4
:102500006F74756E65206661696C65642120546521
:102510006D706572617475726520746F6F20686983
:1025200067680A00204B643A2000204B693A20007B
:10253000204B703A20000A20436C6173736963205A
:10254000504944200A002054753A2000204B753A27
:102550002000206D61783A2000206D696E3A2000DD
:1025600020643A200020626961733A200046696C59
:102570002E204469612E0046696C2E204469612E2C
:10258000004F6666004F6E20004520696E206D6D1D
:102590003300436F6E74726F6C0043616E6E6F74C4
:1025A00020656E746572207375626469723A2000EA
:1025B000052E2E004D61696E000014DDA3DB112491
:1025C0001FBECFEFD1E2DEBFCDBF00E00CBF14E0F5
:1025D000A0E0B2E0E2EDFBED01E00BBF02C007902E
:1025E0000D92A03CB107D9F723E1A0ECB4E001C003
:1025F0001D92A03BB207E1F712E1CEEDD2E100E07F
:1026000006C021970109802FFE010E9458EDCD3DA3
:10261000D10780E00807A9F70E94B3D50C94D8ED44
:102620000C9400002F923F924F925F926F927F9294
:102630008F929F92AF92BF92CF92DF92EF92FF92D2
:102640000F931F93CF93DF93CDB7DEB7C255D10958
:102650000FB6F894DEBF0FBECDBF0091660920E62D
:10266000029F800111240A51184F1093CC0400934B
:10267000CB048091910780FF18C0ECE1F1E28491D6
:102680007F013FEFE31AF30A882321F00E94D74528
:10269000F701F5CFD8018D918D01882319F00E94A3
:1026A000D745F8CF8AE00E94D7452091CB043091DE
:1026B000CC04F90180812F5F3F4F8032D1F3F0933A
:1026C000CC04E093CB048E3469F01091CB040091DC
:1026D000CC046AE270E0812F902F0E94A0ED009759
:1026E000D1F420C0818190ED980F9A3010F08D3296
:1026F00061F73296DF0131962C9120532A30D0F3C6
:10270000CD01FC01019620812032D9F3F093CC0455
:10271000E093CB04DACFFC0131968291803231F024
:102720008A3221F0A12FB02F9D9102C01082F5CFE7
:10273000FD01808111968032D9F380538A3020F0D8
:10274000ECE1F1E20C94F82A00E010E02AE0209F8E
:10275000B001219F700D11248B010053110981914B
:10276000080F111D87FD1A95808180538A3078F3F8
:102770007F013196D7018C918032D1F3F092C5045C
:10278000E092C40421E030E03093740F2093730F83
:102790009D3409F470C5943511F40C94C12A973412
:1027A00011F00C94DA2A0D31110509F4D0C380F42C
:1027B0000430110509F425C228F402301105E8F0AF
:1027C0000C94EF2A0C31110509F459C20C94EF2A2C
:1027D0000A35110509F49EC430F40E31110509F4CF
:1027E000BAC30C94EF2A0B35110509F497C40C35C4
:1027F000110509F498C40C94EF2A809146028823AD
:1028000011F40C94EF2A8DE7C82E8FE0D82E95EBAB
:10281000E92E97E0F92E26ECA22E24E0B22E0EED42
:1028200012E034E0932E900EF80181918F010E9406
:1028300023438823E1F00E94A843D5012C91211164
:1028400004C02091CA04222331F0F7012081318194
:102850004281538103C020E030E0A9010E94D9EAFF
:10286000D6016D937D938D939C9313970AC0F701C6
:1028700080819181A281B381F60180839183A283BB
:10288000B383F4E0CF0ED11C24E0E20EF11C3FEF45
:10289000A31AB30A9012C8CF86E40E942343882368
:1028A00059F00E94A84320E030E0A9010E9478EC92
:1028B000181614F40C94132BC0903402D0903502E7
:1028C000E0903602F0903702A701960160917D0FEB
:1028D00070917E0F80917F0F9091800F0E94A0E6F3
:1028E00087FF08C0C0927D0FD0927E0FE0927F0FCD
:1028F000F092800FC0903802D0903902E0903A02F6
:10290000F0903B02A70196016091810F7091820FB8
:102910008091830F9091840F0E94A0E687FF08C0EA
:10292000C092810FD092820FE092830FF092840FB9
:10293000C0903C02D0903D02E0903E02F0903F02F9
:10294000A70196016091850F7091860F8091870F86
:102950009091880F0E94A0E687FF08C0C092850F63
:10296000D092860FE092870FF092880FC0902802D5
:10297000D0902902E0902A02F0902B02A701960144
:1029800060917D0F70917E0F80917F0F9091800FED
:102990000E9478EC181644F4C0927D0FD0927E0FFE
:1029A000E0927F0FF092800FC0902C02D0902D0209
:1029B000E0902E02F0902F02A70196016091810F06
:1029C0007091820F8091830F9091840F0E9478EC18
:1029D000181644F4C092810FD092820FE092830FB8
:1029E000F092840FC0903002D0903102E090320219
:1029F000F0903302A70196016091850F7091860FC8
:102A00008091870F9091880F0E9478EC181644F4FB
:102A1000C092850FD092860FE092870FF092880FB8
:102A20000E9494458091910783FD93C0C090890FC7
:102A3000D0908A0FE0908B0FF0908C0F2091C107FF
:102A40003091C2074091C3075091C407C701B60136
:102A50000E94A0E6882309F47CC080918C07811134
:102A600034C0209115023091160240911702509106
:102A700018026091C00F7091C10F8091C20F9091A8
:102A8000C30F0E94A0E687FF20C0C092C107D0926A
:102A9000C207E092C307F092C407ECE1F1E284912F
:102AA0008F010F5F1F4F882321F00E94D745F80147
:102AB000F6CFE0E0F2E084918F010F5F1F4F882393
:102AC00021F00E94D745F801F6CFC090890FD09031
:102AD0008A0FE0908B0FF0908C0F2091C1073091FE
:102AE000C2074091C3075091C407C701B6010E94B5
:102AF000D8EA0E94BBEB97FF07C090958095709530
:102B000061957F4F8F4F9F4F693C710581059105FE
:102B100004F1C092C107D092C207E092C307F092BD
:102B2000C407ECE1F1E284918F010F5F1F4F88230E
:102B300021F00E94D745F801F6CFE1EEF1E0849153
:102B40008F010F5F1F4F882321F00E94D745F801A6
:102B5000F6CF20917D0F30917E0F40917F0F5091E5
:102B6000800F6091B5077091B6078091B70790917B
:102B7000B8070E94A0E681111DC02091810F3091FD
:102B8000820F4091830F5091840F6091B90770912B
:102B9000BA078091BB079091BC070E94A0E6811103
:102BA00009C060910002709101028091020290912F
:102BB00003021AC06091260270912702072E000CB2
:102BC000880B990B0E94A6E6209100023091010229
:102BD00040910202509103020E9405E72AE037ED7E
:102BE00043E25CE30E9405E70E94C84280E1EDE712
:102BF000FFE0A5EBB7E001900D928A95E1F70C9408
:102C0000EF2A80E50E942343882329F00E949D43F8
:102C10006B017C0103C0C12CD12C760183E50E949D
:102C20002343882321F00E94D1436B017C010E9441
:102C3000258D0E9494458091750F9091760FA091FB
:102C4000770FB091780FC80ED91EEA1EFB1E809137
:102C50009202811105C060E08BE192E00E94F49B3A
:102C60000E941196DC01CB018C199D09AE09BF09A8
:102C7000B7FD02C00C94EF2A0E9408A9F1CF0E9470
:102C8000258D80E00E9411410E94B84581E080932B
:102C9000230288E50E942343F82E89E50E942343FE
:102CA000182F8AE50E942343082FF11005C0111147
:102CB00005C091E0982705C0111102C090E001C045
:102CC000982F9093040280E1E5EBF7E0ADE7BFE0D9
:102CD00001900D928A95E1F7911104C0F11002C0A4
:102CE0001123D9F120E030E040E85FE36091550521
:102CF0007091560580915705909158050E94D9EA28
:102D00002091490530914A0540914B0550914C0561
:102D10000E94D9EA6093850F7093860F8093870F86
:102D20009093880F2091BD073091BE074091BF0757
:102D30005091C0070E9478EC18167CF419821A8210
:102D40001B821C829E012F5F3F4F45E85FE069EBCD
:102D500077E085EB97E00E94264180910402811183
:102D600002C0FF2021F080E090E00E9426A7809121
:102D70000402811102C0112321F081E090E00E9441
:102D800026A780910402811103C0002309F4D3C057
:102D90008091B107882321F08091B20781111EC074
:102DA00060E088E592E00E94F49BECE1F1E284911E
:102DB0008F010F5F1F4F882321F00E94D745F80134
:102DC000F6CFE7E4F2E084918F010F5F1F4F882375
:102DD00009F4B1C00E94D745F801F5CF0E945944CB
:102DE00020E030E044ED52E460914D0570914E05D5
:102DF00080914F05909150050E94D9EA209141059C
:102E00003091420540914305509144050E94D9EA12
:102E10004B015C0160937D0F70937E0F80937F0F59
:102E20009093800F20E030E04EED52E46091510528
:102E30007091520580915305909154050E94D9EAF2
:102E40002091450530914605409147055091480530
:102E50000E94D9EA6B017C016093810F7093820F0D
:102E60008093830F9093840F8091BD079091BE074C
:102E7000A091BF07B091C0078093850F9093860FF4
:102E8000A093870FB093880F8DE79FE00E94FC5FAF
:102E90008823A1F120E030E040EE51E4C501B40107
:102EA0000E94D8EA60937D0F70937E0F80937F0F0E
:102EB0009093800F20E030E040E050E4C701B6017D
:102EC0000E94D8EA6093810F7093820F8093830FE2
:102ED0009093840F19821A821B821C829E012F5F9D
:102EE0003F4F4DEB57E061E87FE08DE79FE00E94A8
:102EF000264182E090E00E9426A71DC060E086E3A4
:102F000092E00E94F49BECE1F1E284918F010F5F6B
:102F10001F4F882321F00E94D745F801F6CFE4E245
:102F2000F2E084918F010F5F1F4F882321F00E94F0
:102F3000D745F801F6CF0E94594480913C05809313
:102F400023020E949F450E9424C70C94EF2A0E94EE
:102F5000D42B0C94EF2A88E50E942343882319F090
:102F60000E94A8430EC020E030E040EE51E46091A2
:102F7000B5077091B6078091B7079091B8070E9486
:102F8000D9EA6BAF7CAF8DAF9EAF89E50E9423433A
:102F9000882319F00E94A8430EC020E030E040E0F2
:102FA00050E46091B9077091BA078091BB07909186
:102FB000BC070E94D9EA68A379A38AA39BA30BAD9F
:102FC0001CAD2DAD3EAD09831A832B833C836D83ED
:102FD0007E838F83988720E030E0A90160915505BA
:102FE0007091560580915705909158050E94D9EA35
:102FF0002091490530914A0540914B0550914C056F
:103000000E94D9EA69877A878B879C87CE010196CF
:103010000E94FC5F882311F40C94EF2A83E50E9440
:103020002343882321F00E946543482F01C041E0DB
:1030300080E063964FAF63970E9411410E94B845AC
:1030400021E030E063964FAD6397BE01605E7F4F35
:10305000CE01CB960E94784A6B017C01E2E7F2E058
:1030600084918F010F5F1F4F882321F00E94D74565
:10307000F801F6CF27E137EB41ED58E36BAD7CADBE
:103080008DAD9EAD0E94D9EA42E00E94074AEDE66E
:10309000F2E084918F010F5F1F4F882321F00E947F
:1030A000D745F801F6CF27E137EB41ED58E368A1AA
:1030B00079A18AA19BA10E94D9EA42E00E94074A15
:1030C000E8E6F2E084918F010F5F1F4F882321F023
:1030D0000E94D745F801F6CF2091CF023091D0025F
:1030E0004091D1025091D202C701B6010E94D9EAA3
:1030F00027E137EB41ED58E30E94D9EA42E00E9414
:10310000074A8AE00E94D7450E949F450E9424C733
:103110000C94EF2A1092CA040C94EF2A81E0809359
:10312000CA040C94F02A85E40E942343B82E81112E
:1031300002C00E94258DBEED8B2EB2E09B2E15EBBA
:10314000C12E17E0D12E01E4E02E05E0F02E00E0C4
:1031500010E0A12CD4018D914D010E9423438823BE
:10316000F1F1F601208131814281538160962FAFC8
:10317000609761963FAF619763964FAF6397629692
:103180005FAF62970E94A843D6016D937D938D93A4
:103190009C93139760962FAD609761963FAD6197B2
:1031A00063964FAD639762965FAD629703301105EA
:1031B000B1F00E94D8EA9B01AC01F70160817181F6
:1031C000828193810E94D9EAD7016D937D938D937B
:1031D0009C931397C8010E944345AA24A3940F5FB0
:1031E0001F4FB4E0CB0ED11CE4E0EE0EF11C043016
:1031F000110509F0AFCFAA2019F00E94594437C039
:10320000BB20A9F1C090C107D090C207E090C307CE
:10321000F090C40720913F13309140134091411327
:1032200050914213C701B6010E9405E70E947CEC51
:1032300060936C1070936D1080936E1090936F106C
:10324000C701B6010E94BBEB2FB7F8946093510EF3
:103250007093520E8093530E9093540E2FBF109282
:103260005C1010925D1010925E1010925F100E9420
:1032700024C70C94EF2A0137110509F462C608F03F
:10328000CEC00033110509F43BC508F068C0083111
:10329000110509F483C208F03EC00231110511F492
:1032A0000C947223D8F40230110508F4B1C1013135
:1032B000110511F00C94EF2A60E081EB92E00E947E
:1032C000F49B5F988A989FB7F894809108018E7F4D
:1032D000809308019FBF12980C94EF2A05311105C5
:1032E00009F452C240F40431110511F00C94EF2A94
:1032F000E9ECF2E006C20631110509F449C20731D2
:10330000110511F00C94EF2A40E061E0C7010E9422
:103310004C5B0C94EF2A0C31110509F494C250F463
:103320000A31110509F445C208F051C21092A010EB
:103330000C94EF2A0F31110509F4F4C330F40E3167
:10334000110509F487C20C94EF2A0032110509F423
:1033500099C30A32110509F48BC40C94EF2A0C3579
:10336000110511F40C94AC2358F50135110511F435
:103370000C94532388F40C34110509F4C5C40D349E
:10338000110509F4DBC40B34110511F00C94EF2A7C
:103390000E94EB600C94EF2A0335110511F40C9494
:1033A0006E2310F40C946B230435110511F40C9466
:1033B00072230535110511F40C949B230C94EF2A0C
:1033C0000C36110509F4B5C5B8F40936110509F430
:1033D000FDC530F40836110509F4B4C40C94EF2A85
:1033E0000A36110511F40C941F230B36110511F444
:1033F0000C9443230C94EF2A0E36110509F4E9C40A
:1034000008F401C60F36110509F4F6C4003711059A
:1034100011F00C94EF2A86EC93E00E94C5A8023EBE
:10342000110511F40C947E2708F077C00E3B1105AE
:1034300009F490C760F50737110511F40C94442482
:1034400098F40337110511F40C94372410F40C94FC
:1034500034240537110511F00C94EF2A60E0C70100
:103460000E94AEAF0C94EF2A0937110511F40C94A9
:10347000B02410F40C94AA240C38110509F48DC55D
:103480000139110511F40C94B5240C94EF2A0D3C6C
:10349000110511F40C941C26C8F4093C110511F413
:1034A0000C94722538F4083C110511F40C9429256C
:1034B0000C94EF2A0B3C110511F40C9494250C3C50
:1034C000110511F40C94B2250C94EF2A033D11055B
:1034D00011F40C94C026A8F40E3C110511F00C94C4
:1034E000EF2A3EEDA32E32E0B32E45EBC42E47E08B
:1034F000D42E5DE4E52E55E0F52E00E010E00C94AE
:1035000087260C3D110511F40C9458270D3D11052B
:1035100011F40C9465270C94EF2A0A39F1E01F0787
:1035200009F40BC5B8F50F3231E0130711F40C9410
:10353000E02880F40D3251E0150711F40C94CF27E8
:1035400010F00C946F280C32114011F40C94A92740
:103550000C94EF2A0039A1E01A0711F40C94E32827
:1035600048F40336114011F00C94EF2AEDEFFEE021
:103570000C949A2A0139F1E01F0711F40C94E62803
:103580000239114011F00C94EF2A80E00E947F4232
:103590000C94EF2A063F31E0130711F40C94522AE1
:1035A000E8F40C3A51E0150711F40C943A2938F478
:1035B000043A114011F40C94EA280C94EF2A043FC9
:1035C000A1E01A0711F40C944F2A053F114011F0A5
:1035D0000C94EF2A0E9449520C94EF2A0335E3E041
:1035E0001E0711F40C94612A38F4073F114011F4BE
:1035F0000C94552A0C94EF2A003A33E0130709F48F
:1036000087C2073E134011F40C94B12A0C94EF2AA0
:1036100080E50E942343882359F00E949D434B017B
:103620005C0111E0672B682B692B31F410E004C0BA
:1036300010E0812C912C540183E50E9423438823C0
:1036400099F00E94D1434B015C0111110FC0672B0F
:10365000682B692B59F4D7018C91882339F061E0EC
:10366000C7010E94AEAF07C01123A9F360E080EA52
:1036700092E00E94F49B81E08093AE0F83E090E0A3
:103680009093740F8093730F0E94258D0E94944530
:1036900081149104A104B104E9F08091750F909117
:1036A000760FA091770FB091780F880E991EAA1E01
:1036B000BB1E0E941196DC01CB0188199909AA0949
:1036C000BB09B7FF1AC08091AE0F8823B1F00E94EA
:1036D00008A9EFCF8091AE0F882319F00E9408A9A6
:1036E000F9CF8091A01060E0882319F081E992E081
:1036F00002C08AE792E00E94F49B1092AE0F0C94F5
:10370000EF2A84918F010F5F1F4F882321F00E94C1
:10371000D745F801F6CF109226131092251340E0FA
:1037200050E0BA0181ED90E10E94086C8BE1E1ED7F
:10373000F0E1DE01159601900D928A95E1F78091F6
:10374000CF109091D0109C838B838EEE93E09A8360
:10375000898340E050E0BE016F5F7F4F85E794E0D2
:103760000E940C59CE0101960E94ACA8EAEBF2E04F
:1037700084918F010F5F1F4F882311F40C94EF2A5F
:103780000E94D745F801F4CF0E94805E0C94EF2A86
:103790001092A0101092A1100C94EF2A8091A11009
:1037A000882319F081E08093A0100E94EB600C94B4
:1037B000EF2A8091A110882311F40C94EF2A83E55D
:1037C0000E94234381110C94252B0C94EF2A8091A5
:1037D000A110882351F1EAEDF2E084918F010F5F8F
:1037E0001F4F882321F00E94D745F801F6CF609142
:1037F0001C1370911D1380911E1390911F134AE0AA
:103800000E943A468FE20E94D7456091181370914A
:10381000191380911A1390911B134AE00E943A46A3
:103820008AE00E94D7450C94EF2AECEEF2E08491F6
:103830008F010F5F1F4F882311F40C94EF2A0E9411
:10384000D745F801F4CF40E060E0C7010E944C5B2F
:103850000C94EF2A8091A110882311F40C94EF2A84
:103860008BE692E10E94C76B8BE692E10E94B7A4BF
:1038700010929F1010929E10E090C404F090C50426
:103880008091A110882311F40C94EF2A0E94415BCF
:103890001D8218861C821B828EEE93E09A83898398
:1038A0008DEC90E19093ED108093EC10F701808106
:1038B0008F3209F068C06FE270E0C7010E94A0ED8E
:1038C0008C010F5F1F4F9E012F5F3F4F4901011574
:1038D000110509F45EC06FE270E0C8010E94A0ED1E
:1038E0006C01009709F456C00817190708F052C078
:1038F0005C01A01AB10AA501B801CE0180960E9410
:10390000C9EDE0E2F0E0EC0FFD1FEA0DFB1D1082B7
:103910008E01005E1F4FD8018D918D01882319F013
:103920000E94D745F8CF8AE00E94D7456091EC10FD
:103930007091ED106115710511F06C5F7F4F21E002
:10394000AE01405E5F4FCE0105960E940372811169
:1039500012C0BE01605E7F4F83E293E00E94144676
:103960008EE20E94D7458AE00E94D745C4010E949A
:10397000ACA80C94EF2A9092ED108092EC10860186
:103980000F5F1F4FA4CF8EEE90E19093ED108093C8
:10399000EC1087016091EC107091ED1061157105CC
:1039A00011F06C5F7F4F18A21BA222E0A801CE018C
:1039B00080960E940372811102C0F12C1EC0CE01BC
:1039C00080960E94B2BB8823C1F36CA57DA58EA50D
:1039D0009FA541E00E94176A882379F3E8A9B0E225
:1039E000EB9FF0011124E75AFA4F309731F385EE3F
:1039F00080831BA20E94D769F82ECE0180960E9478
:103A00008E45FF2009F1EDEFF2E084917F012FEF69
:103A1000E21AF20A882321F00E94D745F701F5CF78
:103A2000D8018D918D01882319F00E94D745F8CFD8
:103A30008AE00E94D74510921C1310921D13109219
:103A40001E1310921F1318C0EBE0F3E084917F0166
:103A5000BFEFEB1AFB0A882321F00E94D745F7013C
:103A6000F5CFF80181918F01882319F00E94D74585
:103A7000F8CF8EE20E94D745CE0101960E94ACA8F5
:103A80000C94EF2A8091A01081110E94258D009145
:103A9000C4041091C50461E270E0C8010E94A0ED69
:103AA000009719F08C010F5F1F4F80E50E942343A0
:103AB000882349F0FF24F3948091C0049091C104BD
:103AC0008017910708F0F12C8091A110882311F440
:103AD0000C94EF2A4F2D61E0C8010E944C5B83E5F6
:103AE0000E942343882349F08091C0049091C1042F
:103AF0008017910710F40C94362B8091A110882325
:103B000019F081E08093A010F1100C94EF2A4DCEB3
:103B100081E080939F1040E060E0C7010E944C5B11
:103B20000C94EF2A0E947CBBACE3CA2ED12CE12C72
:103B3000F12CA70196010E947BEA762E672ECA011E
:103B4000B901A70196010E947BEA6B017C01CA01C1
:103B5000B90128E130E040E050E00E947BEA4B01EF
:103B60005C01C9016DE671E00E9431ED8E010F5FCD
:103B70001F4F6115710599F06F927F92DF92CF927E
:103B80009F928F929F938F937F936F938FE593E094
:103B90009F938F931F930F930E9471E612C000971B
:103BA000B1F06F927F92DF92CF929F928F929F930C
:103BB0008F938FE493E09F938F931F930F930E94B3
:103BC00071E60FB6F894DEBF0FBECDBF36C08114CC
:103BD0009104A104B10479F06F927F92DF92CF92A9
:103BE0009F928F9283E493E09F938F931F930F9301
:103BF0000E9471E6E6CFC114D104E104F10469F03A
:103C00006F927F92DF92CF928BE393E09F938F939B
:103C10001F930F930E9471E6D4CF6F927F9287E338
:103C200093E09F938F931F930F930E9471E60F90E1
:103C30000F900F900F900F900F9060E0C8010E94BE
:103C4000AEAFECE1F1E284917F01BFEFEB1AFB0A2A
:103C5000882321F00E94D745F701F5CFB80183E70B
:103C600093E00E9414468AE00E94D7450C94EF2A04
:103C700083E50E942343882311F40C94EF2A0E94C9
:103C800090437C018F3F910519F010F00C94EF2ABE
:103C900080E50E942343882339F00E9490438C01E1
:103CA00097FF04C00C94EF2A0DE010E0D02EE2EE56
:103CB000F2E0C8019927219131912817390731F095
:103CC00023E0E233F207B9F70C94DC2AEDEFFEE0D3
:103CD00084918F010F5F1F4F882321F00E94D745E9
:103CE000F801F6CFE0E8F3E084918F010F5F1F4FFA
:103CF000882311F40C94EF2A0E94D745F801F4CFE1
:103D00000E9465C10C94EF2A8091901090919110BF
:103D1000019711F00C94EF2A82E090E090939110BB
:103D2000809390100E94119660939A1070939B104C
:103D300080939C1090939D100C94EF2A0E94A2B93E
:103D40000C94EF2A88E690E00E94CF4981110C94F0
:103D5000EF2A8091910783FF02C00C94EF2A83E53C
:103D60000E942343882311F40C94EF2A0E94A84355
:103D70000E94BBEB70936F0760936E0780E00E9418
:103D8000CF9D0E94A84320E030E04AEA52E40E941E
:103D9000A0E618163CF00E94A2B960E08AE993E020
:103DA0000E94F49B0E94A8432091C00F3091C10F44
:103DB0004091C20F5091C30F0E9478EC181614F076
:103DC0000C94EF2A60E08FE893E00E94F49B0C943F
:103DD000EF2A8EE40E942343882311F40C94EF2AE7
:103DE0000E9404D460936F0F7093700F8093710FD3
:103DF0009093720F0C94EF2A83E50E94234388234B
:103E000019F00E94364301C080E080939107ECE1F5
:103E1000F1E284918F010F5F1F4F882321F00E94F0
:103E2000D745F801F6CFEFEBF3E084918F010F5FF8
:103E30001F4F882321F00E94D745F801F6CF8091CB
:103E400091078823A1F1F1EBCF2EF3E0DF2EE12CD7
:103E5000F12C20E08091910790E00E2C02C0959506
:103E600087950A94E2F780FF17C0BB24B394B20E83
:103E7000222319F08CE20E94D745F6012591349156
:103E8000F901849189010F5F1F4F882321F00E945F
:103E9000D7459801F5CF2B2DFFEFEF1AFF0A32E03F
:103EA000C30ED11C45E0E416F104A1F63DC0EBEBD6
:103EB000F3E084918F010F5F1F4F8823A9F10E94C7
:103EC000D745F801F6CF80E20E94D7458AE50E94E7
:103ED0002343882311F40C948C2A0E94A8436B017D
:103EE0007C0120E030E040EA51EC0E9478EC87FF52
:103EF00002C00C947B2A20E030E040EA51E4C70184
:103F0000B6010E94A0E6181614F40C947B2AC09205
:103F1000CF02D092D002E092D102F092D20242E0DF
:103F2000C701B6010E94074A8AE00E94D7450C9457
:103F3000EF2A109291020C94EF2A0E94F0C60C9482
:103F4000EF2A83E50E942343882369F00E943643C9
:103F500080938A028D3310F40C94EF2A8CE38093C3
:103F60008A020C94EF2AECE1F1E284918F010F5F59
:103F70001F4F882321F00E94D745F801F6CF4091CA
:103F80008A0250E060E070E08FEC93E00E94A0466F
:103F90008AE00E94D7450C94EF2A8091910783FF15
:103FA00002C00C94EF2A83E50E942343882311F476
:103FB0000C94EF2A0E94A8430E94BBEB70936D07FC
:103FC00060936C070E94809D0C94EF2A89E690E034
:103FD0000E94CF49811111C0E6EDF3E084918F0179
:103FE0000F5F1F4F882321F00E94D745F801F6CFBD
:103FF0000E94E3C78AE00E94D7451092740F109286
:10400000730F0C94BA2B8DE690E00E94CF4981117A
:104010000C94EF2A8091910783FF02C00C94EF2A41
:1040200083E50E94234326968FAF2697811105C012
:1040300082E50E9423438823C9F10E94A8430E947D
:10404000BBEB70936F0760936E0780E00E94CF9D7B
:104050000E94A84320E030E04AEA52E40E94A0E631
:10406000181614F40C94482B0E94A2B960E089EF52
:1040700093E00E94F49B60916E0770916F07072E8A
:10408000000C880B990B0E94A6E62091C00F30917E
:10409000C10F4091C20F5091C30F0E9478EC1816C7
:1040A0002CF460E08EEE93E00E94F49B81E080931C
:1040B00091021092740F1092730F25961CAE1DAED4
:1040C0001EAE1FAE25972B961CAE1DAE1EAE1FAEAC
:1040D0002B971FAE2C961FAE2C975CE32D965FAFEF
:1040E0002D978CE12E968FAF2E9796E42F969FAF4B
:1040F0002F97C12CD12C70E8E72EEFEBFE2E812CF0
:10410000912C540160916E0770916F07072E000C7F
:10411000880B990B0E94A6E6162F072F782E692E82
:10412000262F372F482F592FB601C7010E94A0E62E
:10413000882319F12091C00F3091C10F4091C20F17
:104140005091C30F612F702F872D962D0E94A0E6EE
:10415000881F8827881F8FAF2696AFAD2697AA2382
:1041600081F0882371F080919102882311F40C94DE
:10417000EF2A60E089ED93E071C11C2D0D2D7E2C9E
:104180006F2C0E9411966B017C01DC01CB012B96F8
:104190002CAD3DAD4EAD5FAD2B97821B930BA40BA9
:1041A000B50BB7FD47C0D701C60188519C4FAF4F33
:1041B000BF4F2B968CAF9DAFAEAFBFAF2B970E947A
:1041C000E3C7EAEEF3E084912F019FEF491A590A01
:1041D000882321F00E94D745F201F5CF8114910484
:1041E000A104B104D1F0D501C4018059984EAF4F5C
:1041F000BF4FBC01CD016C197D098E099F0928EEC6
:1042000033E040E050E00E947BEACA01B9010E941D
:10421000BB468AE00E94D7450DC0E7EEF3E08491EB
:104220002F01AFEF4A1A5A0A882321F00E94D7457E
:10423000F201F5CF0E9408A90E9494452090C00F7A
:104240003090C10F4090C20F5090C30F9101A20156
:10425000612F702F872D962D0E94D8EA9F778114A9
:104260009104A104B10449F420E030E040E85FE3A8
:104270000E94A0E687FF0BC008C020E030E040E4C9
:1042800050E40E9478EC181614F446015701BFADB3
:10429000BB2309F443C025962CAD3DAD4EAD5FADBB
:1042A0002597211531054105510541F0D701C6017A
:1042B000821B930BA40BB50BB7FD30C09101A2017B
:1042C0002C966FAD2C972D967FAD2D972E968FAD9A
:1042D0002E972F969FAD2F970E94D8EA20E030E0CE
:1042E00040EC5FE30E94A0E687FD3DCFD701C60109
:1042F000805A9541AF4FBF4F25968CAF9DAFAEAF63
:10430000BFAF25972C962FAE2C972D963FAE2D97AD
:104310002E964FAE2E972F965FAE2F9780919102DB
:10432000882309F420CF81149104A104B10429F455
:10433000C12ED02EE72CF62CE5CE90E7C91A97E1D6
:10434000D90AE108F108C818D908EA08FB08F7FEFD
:104350000ACFEECF8091910783FF02C00C94EF2A21
:1043600060E081E294E00E94F49B83E50E94234395
:1043700026968FAF269781110C944C2B82E50E94D4
:10438000234381110C944C2B81E080939102109275
:10439000740F1092730F8091C3048093C20425960A
:1043A0001CAE1DAE1EAE1FAE25972B961CAE1DAECD
:1043B0001EAE1FAE2B971FAE2C961FAE2C97ACE3F4
:1043C0002D96AFAF2D97BCE12E96BFAF2E97E6E4AA
:1043D0002F96EFAF2F97C12CD12C50E8E52E6FEB25
:1043E000F62E812C912C540160916C0770916D0711
:1043F000072E000C880B990B0E94A6E6162F072F9C
:10440000782E692E262F372F482F592FB601C70136
:104410000E94A0E6882331F12091BC0F3091BD0F9E
:104420004091BE0F5091BF0F612F702F872D962D99
:104430000E94A0E6881F8827881F8FAF2696FFADB1
:104440002697FF2399F0882389F080919102882391
:1044500011F40C94EF2A60E080E194E00E94F49B58
:104460000C94EF2A1C2D0D2D7E2C6F2C0E94119682
:104470006B017C01DC01CB012B962CAD3DAD4EAD2B
:104480005FAD2B97821B930BA40BB50BB7FD47C0F9
:10449000D701C60188519C4FAF4FBF4F2B968CAFB1
:1044A0009DAFAEAFBFAF2B970E94E3C7EDE1F4E045
:1044B00084912F019FEF491A590A882321F00E9405
:1044C000D745F201F5CF81149104A104B104D1F0D4
:1044D000D501C4018059984EAF4FBF4FBC01CD01EB
:1044E0006C197D098E099F0928EE33E040E050E009
:1044F0000E947BEACA01B9010E94BB468AE00E9481
:10450000D7450DC0EAE1F4E084912F01AFEF4A1ADC
:104510005A0A882321F00E94D745F201F5CF0E9464
:1045200008A90E9494452090BC0F3090BD0F409088
:10453000BE0F5090BF0F9101A201612F702F872DE8
:10454000962D0E94D8EA9F7781149104A104B104AA
:1045500049F420E030E040E85FE30E94A0E687FFF6
:104560000BC008C020E030E040E450E40E9478EC4A
:10457000181614F446015701BFADBB2309F443C01C
:1045800025962CAD3DAD4EAD5FAD2597211531057E
:104590004105510541F0D701C601821B930BA40BC5
:1045A000B50BB7FD30C09101A2012C966FAD2C97D1
:1045B0002D967FAD2D972E968FAD2E972F969FAD72
:1045C0002F970E94D8EA20E030E040EC5FE30E94A1
:1045D000A0E687FD3ACFD701C601805A9541AF4F7B
:1045E000BF4F25968CAF9DAFAEAFBFAF25972C9632
:1045F0002FAE2C972D963FAE2D972E964FAE2E9721
:104600002F965FAE2F9780919102882309F41DCFDA
:1046100081149104A104B10429F4C12ED02EE72CF9
:10462000F62CE2CE90E7C91A97E1D90AE108F10821
:10463000C818D908EA08FB08F7FE07CFEECF83E5D4
:104640000E942343882321F00E94F7D38C0102C0EB
:104650000FEF10E080E50E942343882319F00E94A9
:10466000F7D302C080E090E098010F3F110519F0E8
:1046700010F02FEF30E0892B09F0B1C730936B07B2
:1046800020936A07ACC780E50E942343811105C0CF
:1046900010926B0710926A07A2C70E94F7D3892B6A
:1046A00009F09DC7F5CF0E941E9E0E94258D0E9495
:1046B000B4A810926B0710926A0768EE73E080E06E
:1046C00090E00E94D99560E08EE294E00E94F49B15
:1046D0000E94BFAF84C71092C90481C781E0809354
:1046E000C9047EC783E50E942343882359F00E94B2
:1046F000D14360938B0270938C0280938D029093D0
:104700008E026DC788E50E9423438111DFC789E5CA
:104710000E9423438111DAC78AE50E942343811155
:10472000D5C785E40E9423438111D0C70E94258DFF
:104730000E94B4A854C783E50E942343882309F448
:104740004EC70E94D1436093790F70937A0F809384
:104750007B0F90937C0F43C73EEDC32E32E0D32EE8
:1047600043E3E42E43E1F42E10E0D6018D916D0178
:104770000E942343882309F46DC0133009F063C0FD
:104780000E94A8434B015C0120E030E040EA51E484
:104790000E94A0E687FF4EC0A501940160913F13DF
:1047A0007091401380914113909142130E9453EBFA
:1047B0002B013C019B01AC0160917F137091801330
:1047C00080918113909182130E9405E760937F137B
:1047D000709380138093811390938213A3019201AD
:1047E00060916F1370917013809171139091721397
:1047F0000E9405E760936F13709370138093711399
:104800009093721360919E0770919F078091A0070B
:104810009091A1070E94A4E6A30192010E9405E7DE
:104820000E94C0EB60939E0770939F078093A00740
:104830009093A10780923F1390924013A09241134E
:10484000B092421307C00E94A843F70160837183AE
:10485000828393831F5FF4E0EF0EF11C143009F0A4
:1048600084CF0E94FE83BBC60E9424C7B8C6E3E47F
:10487000F4E084918F010F5F1F4F882309F4AFC6C6
:104880000E94D745F801F5CFE0E3F5E084918F0170
:104890000F5F1F4F882321F00E94D745F801F6CF04
:1048A000E8E2F5E084918F010F5F1F4F882321F02C
:1048B0000E94D745F801F6CF659B03C00AEF13E0CD
:1048C00002C00FEF13E0D8018D918D01882319F0FC
:1048D0000E94D745F8CF8AE00E94D745E0E2F5E094
:1048E00084918F010F5F1F4F882321F00E94D745CD
:1048F000F801F6CF8091030181FF03C00AEF13E0B6
:1049000002C00FEF13E0F80181918F01882319F0A5
:104910000E94D745F8CF8AE00E94D745E8E1F5E04C
:1049200084918F010F5F1F4F882321F00E94D7458C
:10493000F801F6CF4A9903C00AEF13E002C00FEF67
:1049400013E0D8018D918D01882309F4EDCA0E94EE
:10495000D745F7CF81E08093230280933C0540C682
:104960001092230210923C053AC683E50E9423432D
:104970008823F1F00E949043182F8230D0F0EDEFA1
:10498000FEE084918F010F5F1F4F882321F00E946A
:10499000D745F801F6CFEAE4F5E084918F010F5F87
:1049A0001F4F882309F41BC60E94D745F801F5CF95
:1049B00010E088E40E9423438823B1F00E949043D2
:1049C000E12FF0E08A3A91053CF08530B1E09B0799
:1049D0002CF084E091E002C08AEA90E0EE0FFF1F25
:1049E000EC58F84F9183808386E40E942343882308
:1049F000A1F00E949043E12FF0E0EE0FFF1FE85876
:104A0000F84F8F3F910519F014F08FEF90E097FF6A
:104A100002C080E090E09183808382E40E9423437F
:104A2000882309F4DCC50E949043E12FF0E0853033
:104A3000910534F0843791052CF083E790E002C0B3
:104A400085E090E0EE0FFF1FE059F84F91838083DF
:104A5000C6C588EC90E00E94CF498111C0C584E4AE
:104A60000E942343882309F4BAC50E94A84311E099
:104A700020E030E0A9010E94A0E6811101C010E011
:104A800010938813112359F10091C20410E00E9481
:104A9000A843000F111F000F111FF801ED52FD4F29
:104AA000608371838283938320E030E0A901609169
:104AB000D3027091D4028091D5029091D6020E94C7
:104AC000A0E681110CC080E090E0A0EEBFE38093EF
:104AD000D3029093D402A093D502B093D6020E9441
:104AE0006CA47DC5EBE4EE2EE3E1FE2E0EED12E0AC
:104AF000F4E0DF2ED00EF80181918F010E94234354
:104B0000882351F00E94A8430E94C0EBD7016D9307
:104B10007D938D939C931397B4E0EB0EF11CD01210
:104B2000EACF0E9452735BC563E6E62E63E1F62E80
:104B30000EED12E074E0D72ED00EF80181918F01B6
:104B40000E942343882341F00E94A843D7016D931C
:104B50007D938D939C931397B4E0EB0EF11CD012D0
:104B6000ECCF3DC583E50E9423438823D9F00E9402
:104B7000A843AB01BC01409383135093841360930B
:104B8000851370938613409343135093441360939B
:104B900045137093461386EC95E00E94364C8AE0EC
:104BA0000E94D74580E50E942343882399F00E9404
:104BB000A843AB01BC0140938313509384136093CB
:104BC00085137093861389EA95E00E94364C8AE03B
:104BD0000E94D74582E50E942343882399F00E94D2
:104BE000A843AB01BC014093471350934813609313
:104BF000491370934A138AE895E00E94364C8AE084
:104C00000E94D74584E50E942343882309F4E7C422
:104C10000E94A843AB01BC0140934313509344133B
:104C200060934513709346138CE695E00E94364CD2
:104C30008AE00E94D745D3C483E50E94234388239A
:104C400051F00E94A84360935F13709360138093A8
:104C500061139093621384E50E942343882351F0EB
:104C60000E94A84360935B1370935C1380935D1361
:104C700090935E1382E40E942343882351F00E94A4
:104C80009D4360938D0770938E0780938F07909359
:104C9000900788E50E942343882351F00E94A8438F
:104CA00060937313709374138093751390937613BA
:104CB00089E50E942343882351F00E94A843609312
:104CC0007713709378138093791390937A138AE50E
:104CD0000E942343882351F00E94A84360937B13D2
:104CE00070937C1380937D1390937E1385E40E94D0
:104CF0002343882309F473C40E94A84360937F135D
:104D000070938013809381139093821368C4F5018C
:104D100081915F010E942343882311F10E94A843DF
:104D20002B013C01D7012D913D914D915C910E9449
:104D3000D8EA9B01AC01F601608171818281938187
:104D40000E94D9EAD6016D937D938D939C9313971E
:104D5000F7014082518262827382C8010E944345FA
:104D60000F5F1F4FF4E0CF0ED11C24E0E20EF11CC8
:104D70000330110561F60E9459440E9424C72FC4D4
:104D8000ECE1F1E284918F010F5F1F4F882321F046
:104D90000E94D745F801F6CF83E50E94234388237C
:104DA00021F00E94654380934002E6E1F6E08491A1
:104DB0008F010F5F1F4F882321F00E94D745F80114
:104DC000F6CF80914002811103C0E2E1F6E002C01B
:104DD000EEE0F6E084918F010F5F1F4F882321F0F2
:104DE0000E94D745F801F6CFE6E0F6E084918F0106
:104DF0000F5F1F4F882321F00E94D745F801F6CF9F
:104E00004091340250913502609136027091370220
:104E100084E096E00E94364C40913802509139026D
:104E200060913A0270913B0281E096E00E94364C1C
:104E300040913C0250913D0260913E0270913F02D0
:104E40008EEF95E00E94364CE6EFF5E084918F01FD
:104E50000F5F1F4F882321F00E94D745F801F6CF3E
:104E6000409128025091290260912A0270912B02F0
:104E700084EF95E00E94364C40912C0250912D0217
:104E800060912E0270912F0281EF95E00E94364CC6
:104E900040913002509131026091320270913302A0
:104EA0008EEE95E00E94364C8AE00E94D74597C36B
:104EB00083E50E942343882309F491C30E94904311
:104EC00090932702809326028AC38DED90E00E9482
:104ED000CF49811184C383E50E942343882309F4C9
:104EE0007EC30091C20410E00E949043000F111F86
:104EF000F801EC5DFD4F9183808371C380E50E94D2
:104F00002343882309F46BC30E9490438C0183E5FB
:104F10000E942343882321F00E9490437C0103C018
:104F2000EE24EA94FE2CC7010196039708F057C3BC
:104F300017FD55C3E2EEF2E0C801992721913191A6
:104F40002817390709F44BC333E0E233F307B1F70D
:104F5000E9C383E50E942343882319F00E94F7D315
:104F600002C084E091E099A388A380E50E942343D6
:104F7000882349F00E94F7D3893843E1940728F049
:104F800088E893E102C088EE93E09A838983BE01AA
:104F9000605E7F4FCE0101960E94C85F20C385E40A
:104FA0000E942343811110C080E50E94234388237F
:104FB00099F00E94A8436093090270930A028093BB
:104FC0000B0290930C0208C00E9490431816190619
:104FD0005CF7EDEFFEE071C089E40E942343882373
:104FE00081F00E94A8432CE933E549E45EE30E9486
:104FF00005E760931102709312028093130290935D
:10500000140284E40E942343882381F00E94A84371
:105010002CE933E549E45EE30E9453EB60930D0213
:1050200070930E0280930F0290931002ECE1F1E274
:1050300084918F010F5F1F4F882321F00E94D74575
:10504000F801F6CF4091090250910A0260910B02DB
:1050500070910C028EE296E00E94364C2CE933E50A
:1050600049E45EE360911102709112028091130293
:10507000909114020E9453EBAB01BC018AE296E0CE
:105080000E941B4C2CE933E549E45EE360910D027C
:1050900070910E0280910F02909110020E9405E71C
:1050A000AB01BC0186E296E00E941B4C8AE00E94A4
:1050B000D74595C20E94D745F80184918F010F5FB3
:1050C0001F4F8111F7CF05E114E0D8018D918D01BB
:1050D000882311F40C94941F0E94D745F6CF83E5E2
:1050E0000E942343082F8823A1F00E94A8436093C5
:1050F000150270931602809317029093180211E024
:1051000020E030E0A9010E94A0E6811110E0109398
:105110008C0780E50E942343182F8823A9F020E004
:1051200030E0A9016091150270911602809117027A
:10513000909118020E94A0E6882319F00E9465430E
:10514000182F10938C074BC2011149C2ECE1F1E218
:1051500084918F010F5F1F4F882321F00E94D74554
:10516000F801F6CF80918C07811103C069E074E0EB
:1051700002C06CEF73E087E496E00E94144620E0E2
:1051800030E040E05FE3609115027091160280917B
:105190001702909118020E94D9EA0E94BBEB86E3A5
:1051A00096E00E94B849E2E3F6E084918F010F5F38
:1051B0001F4F882309F413C20E94D745F801F5CF89
:1051C0000E946BC80CC20E94258D09C281E00E941A
:1051D0007F4205C283E50E942343882331F00E9469
:1051E0006543182F0E94114101C010E0F0908B0719
:1051F000111103C0ECE1F1E21AC0F110FBCFEDEFA9
:10520000FEE084918F010F5F1F4F882321F00E94E1
:10521000D745F801F6CFE8E6F6E084918F010F5FFD
:105220001F4F882339F30E94D745F801F6CF8491A8
:105230008F010F5F1F4F882321F00E94D745F8018F
:10524000F6CFF11003C061E174E002C06DE074E0DC
:105250008AE596E00E9414468AE00E94D74586E5DA
:105260000E942343882309F4BAC188E294E00E9493
:105270000FD4B5C185EB282E87E0382EEDE4F5E09C
:105280002196FFAFEEAF21972DE030E123963FAF9F
:105290002EAF239700E010E023964EAD5FAD23972D
:1052A0004D50504127965FAF4EAF27972396AEAD36
:1052B000BFAD23978D912396BFAFAEAF23978823C1
:1052C00009F4B4C0F801E85DFD4F208131814281CD
:1052D0005381F801EC5CFD4F608171818281938183
:1052E0000E94D9EA20E030E040E05FE30E9405E759
:1052F0009B01AC01F10160817181828193810E94E7
:1053000078EC181634F4C8018053904E0E943D4545
:1053100003C060E070E0CB01D1014D905D906D90D5
:105320007C902196EEADFFAD2197C080D180E280C8
:10533000F380A70196010E94D9EAF801EF5BFA4FCA
:1053400020813181428153810E94D9EA9B01AC01C5
:10535000C301B2010E94D8EA4B015C0120E030E0B9
:1053600040EA51EC0E9478EC18168CF520E030E011
:1053700040EA51E4C501B4010E94A0E687FF27C0BE
:10538000A5019401C701B6010E94D8EA4B015C0156
:10539000A70196010E94D8EA9B01AC01C301B201AA
:1053A0000E94D9EAD1016D937D938D939C931397BD
:1053B0002196EEADFFAD219780829182A282B382C9
:1053C00027968EAD9FAD27970E9443452FC0EDEFE6
:1053D000FEE084918F010F5F1F4F882321F00E9410
:1053E000D745F801F6CFE5EAF6E084918F010F5F2B
:1053F0001F4F882321F00E94D745F801F6CF61E0C6
:1054000087E996E00E94F49B0E944BB688E290E008
:105410009A83898388EC90E099A388A3BE016F5F8B
:105420007F4FCE0180960E94C85FD9C0F4E02F0E56
:10543000311C0C5F1F4F21962EAD3FAD21972C5F85
:105440003F4F21963FAF2EAF21970C30110509F049
:1054500023CF0E9459440E9424C760E087E896E069
:105460000E94F49B83E992E099A388A308EC10E0E2
:105470001A830983BE01605E7F4FCE0101960E94B0
:10548000C85F8AEB92E099A388A31A830983BE01BF
:10549000605E7F4FCE0101960E94C85FA0C00E944F
:1054A00067559DC00E948E509AC083E50E94234399
:1054B000882321F00E94654391E089270E940D4DC9
:1054C0008EC0ECE1F1E284918F010F5F1F4F8823C2
:1054D00021F00E94D745F801F6CFE6EDF6E0849181
:1054E0008F010F5F1F4F882311F40C94631F0E94DC
:1054F000D745F801F4CF6CEE7FEF8EEC96E00E947A
:10550000B84980E20E94D74564E170E086EC96E0FD
:105510000E94B8490C94941F4091CF025091D00240
:105520006091D1027091D20283EC96E00E94364CD9
:105530000C94941F84918F010F5F1F4F882321F0DB
:105540000E94D745F801F6CFEFEDF6E084918F0188
:105550000F5F1F4F882309F442C00E94D745F8010E
:10556000F5CF81E08093460210927B0E83E50E9486
:105570002343882309F4D3C00E94654381112FC0BF
:10558000CEC00093C304ECE1F1E284917F013FEFD0
:10559000E31AF30A882321F00E94D745F701F5CFDB
:1055A000B80177278EEE96E00E94B8498AE00E9403
:1055B000D74515C080E014C061E08D2D0E94D594C0
:1055C0006E2D8D2D0E949D84B7018D2D0E94119509
:1055D0000930110521F4F0926B07E0926A0781E02F
:1055E0001092740F1092730F81111AC00C94A013B3
:1055F00084918F010F5F1F4F882321F00E94D745B0
:10560000F801F6CF6091CB047091CC0480E097E074
:105610000E94144682E20E94D7458AE00E94D74544
:105620000E9464AAA7C00E94A84320E030E040E79F
:1056300052E40E9453EB6093000270930102809346
:105640000202909303020C945C140E9404D4AB01F8
:10565000BC0140931C1350931D1360931E13709351
:105660001F138BE692E10E94086CB9CF0E9404D40C
:10567000AB01BC0140931C1350931D1360931E1388
:1056800070931F138BE692E10E94086C0C947D1DB1
:105690000E94EB600C943B200E94A8430E94BBEB4D
:1056A00070936D0760936C070E94809D0E94A843D1
:1056B00020E030E040EA50E40E9478EC181614F044
:1056C0000C94C4210E94EB600C94C4210E94258D8F
:1056D00088E50E942343882319F05F9A1092B1074E
:1056E00089E50E942343882319F08A9A1092B20711
:1056F0008AE50E942343882351F09FB7F894809154
:1057000008018160809308019FBF1092B30785E470
:105710000E942343882309F462CF129A60CF0E942B
:1057200083AA5DCF0E94258DD02E60E0802F0E943D
:10573000D5944FEFE416F40659F4802F0E94EDDA69
:1057400031E020E0892B09F030E0032F122F05C053
:10575000EA94EF2861F000E010E08D2D0E94EDDA70
:105760008017910709F43BCF0E9408A9F6CF01E00A
:1057700010E0F3CFCE5ADF4F0FB6F894DEBF0FBE66
:10578000CDBFDF91CF911F910F91FF90EF90DF90F0
:10579000CF90BF90AF909F908F907F906F905F90D1
:1057A0004F903F902F9008952F923F924F925F928B
:1057B0006F927F928F929F92AF92BF92CF92DF9221
:1057C000EF92FF920F931F93CF93DF93CDB7DEB786
:1057D000C75BD1090FB6F894DEBF0FBECDBF0DB7C2
:1057E0001EB7C556DF4F19830883CB59D0400E949E
:1057F000E8B881110C94124086E50E942343882367
:1058000039F00E949043E9969FAF8EAFE99706C0AA
:1058100021E030E0E9963FAF2EAFE997E9964EAD33
:105820005FADE9974530510570F0E1ECF8E0849107
:105830008F010F5F1F4F882311F40C9412400E94B8
:10584000D745F801F4CF84E40E942343C158DF4FC9
:105850008883CF57D04085E40E942343EA968FAFD8
:10586000EA97E9968EAD9FADE997892B49F484E5D7
:105870000E942343C156DF4F8883CF59D0402BC0AD
:10588000EAEAF8E084918F010F5F1F4F882321F02F
:105890000E94D745F801F6CFC158DF4F9881CF5706
:1058A000D040992361F0E1E9F8E084918F010F5F26
:1058B0001F4F882321F00E94D745F801F6CFE996C3
:1058C000AEADBFADE997139794F2B1E0C156DF4F8B
:1058D000B883CF59D04088E50E942343882339F00C
:1058E0000E949043E5969FAF8EAFE59706C0E6E035
:1058F000F0E0E596FFAFEEAFE59789E50E94234320
:10590000882339F00E9490436D969FAF8EAF6D97BC
:1059100006C006E010E06D961FAF0EAF6D9780E5F4
:105920000E942343882351F00E949043E5969FAF45
:105930008EAFE5976D969FAF8EAF6D97E5962EADC6
:105940003FADE597223031051CF4ECE5F8E008C0E6
:105950006D964EAD5FAD6D97423051056CF4F5CF4D
:1059600084918F010F5F1F4F882311F40C94124014
:105970000E94D745F801F4CF83E50E942343882392
:1059800049F00E94A84320E030E040E752E40E9442
:1059900053EB04C065E575E585E093E4609305028B
:1059A0007093060280930702909308028CE40E9491
:1059B0002343882319F00E94A84318C020E030E058
:1059C00048EC51E460914D0570914E0580914F0572
:1059D000909150050E94D9EA2091410530914205ED
:1059E00040914305509144050E94D9EA0E94BBEBC7
:1059F00023967FAF6EAF239782E50E9423438823CF
:105A000019F00E94A84318C020E030E043E453E4BA
:105A100060914D0570914E0580914F059091500514
:105A20000E94D9EA209141053091420540914305F9
:105A3000509144050E94D9EA0E94BBEB7EAF6DAF46
:105A400086E40E942343882319F00E94A84318C0CB
:105A500020E030E048EC51E460915105709152052E
:105A600080915305909154050E94D9EA20914505F3
:105A70003091460540914705509148050E94D9EA6A
:105A80000E94BBEB1B0182E40E942343882319F090
:105A90000E94A84318C020E030E043E453E4609142
:105AA00051057091520580915305909154050E94C3
:105AB000D9EA20914505309146054091470550911E
:105AC00048050E94D9EA0E94BBEB8B012396AEAD3C
:105AD000BFAD2397BD01BB0F880B990B0E94A6E6B3
